:060000000A128A11D62F3E
:100B8A003F3400343F3400343F340034EE2D310812
:100B9A00F1003008F0008717071387120130B200FE
:100BAA000030B300002E2F08F1002E08F000871342
:100BBA00071787120230B2000030B300002E2D084A
:100BCA00F1002C08F000871307138716B201B3014E
:100BDA00002E831203133308003A0319F52D002E51
:100BEA003208003A0319CC2D013A0319D82D033AD9
:060BFA000319E42D002E9A
:100C0000700886000800780879040319082E092E58
:100C1000382EFD01FD0A172E01300310F80DF90DD5
:100C2000FF3E031D0D2E0130FC007C08FD07F91F5F
:100C30001A2E1B2E0C2E79087B02031D212E7808FC
:100C40007A02031C242E252E2B2E7808FA0279080E
:100C5000031CFB03FB0201300310F90CF80CFF3EF0
:100C6000031D2C2E0130FD02031D372E382E1B2EA6
:100C70007B08F9007A08F8000800F501F601700811
:100C800071040319442E452E7C2EF701F70A532ECA
:100C900001300310F00DF10DFF3E031D492E013010
:100CA000F4007408F707F11F562E572E482E013016
:100CB0000310F50DF60DFF3E031D582E710873024B
:100CC000031D642E70087202031C672E682E6F2E9F
:100CD0007008F2027108031CF303F302751401306B
:100CE0000310F10CF00CFF3E031D702E0130F702D3
:100CF000031D7B2E7C2E572E7608F1007508F00020
:100D00000800B42E3F30F2000030F300D92E063038
:100D1000F2000030F300D92E5B30F2000030F30017
:100D2000D92E4F30F2000030F300D92E6630F20099
:100D30000030F300D92E6D30F2000030F300D92ED0
:100D40007D30F2000030F300D92E0730F200003081
:100D5000F300D92E7F30F2000030F300D92E673037
:100D6000F2000030F300D92E7108003A0319B92EB1
:100D7000D92E7008003A0319822E013A0319872EE2
:100D8000033A03198C2E013A0319912E073A0319DD
:100D9000962E013A03199B2E033A0319A02E013A0D
:100DA0000319A52E0F3A0319AA2E013A0319AF2EE3
:100DB000D92E7308F1007208F00008006430F000CA
:100DC0000030F100831203132108F3002008F20021
:100DD0000A128A113D260A128A117108831203131E
:100DE000A3007008A2000A30F8000030F9000A30B1
:100DF000F0000030F1002108F3002008F2000A1290
:100E00008A113D260A128A117108FB007008FA0047
:100E10000A128A1103260A128A117908831203130F
:100E2000A5007808A4000A30F8000030F900210875
:100E3000FB002008FA000A128A1103260A128A11FE
:100E4000790883120313A7007808A6002308F1008D
:100E50002208F0000A128A1181260A128A117108EA
:100E600083120313B1007008B0002508F1002408B4
:100E7000F0000A128A1181260A128A11710883125F
:100E80000313AF007008AE002708F1002608F00039
:100E90000A128A1181260A128A1171088312031319
:100EA000AD007008AC00080083120313AA01AB0167
:100EB000A801A901033083160313850086010330BE
:100EC00087008316031788010230831603138100FD
:100ED0000B1D6B2F6C2F772F831203130108833E9A
:100EE00081000B110A128A11CB250A128A11831272
:100EF0000313071C7C2F7D2FA52F28082904031D11
:100F0000822F832FA52F0130A8000030A900E730E1
:100F10002A06033003192B0603198F2F902F992FC0
:100F20002A08013EAA002B080318013E003EAB0030
:100F30009B2FAA01AB012B08A1002A08A0000A12CE
:100F40008A11DE260A128A11682F871CA82FA92F62
:100F5000C72F28082904031DAE2FAF2FC72F01303C
:100F6000A8000030A9002A082B040319B82FB92FB4
:100F7000C22F2A08FF3EAA002B080318013EFF3E9D
:100F8000AB009B2FE730AA000330AB009B2F071864
:100F9000CA2FCB2FD22F8718CE2FCF2FD22FA80119
:100FA000A901682F682F0A128A1100280A128A11D3
:100FB000C5250A128A11AC000A128A11C6250A1226
:100FC0008A11AD000A128A11C7250A128A11AE00D1
:100FD0000A128A11C8250A128A11AF000A128A1150
:100FE000C9250A128A11B0000A128A11CA250A12EA
:100FF0008A11B100B201B30183010A128A11542F80
:04400E00D4ECFFFFF0
:00000001FF
